:020000040800F2
:1000000090370020592A0008612A0008632A000856
:10001000652A0008672A0008692A00080000000015
:100020000000000000000000000000006B2A000833
:100030006D2A000800000000CF2C0008412E0008A7
:10004000732A0008732A0008732A0008732A00081C
:10005000732A0008732A0008732A0008732A00080C
:10006000732A0008732A0008732A0008732A0008FC
:10007000732A0008732A0008732A0008732A0008EC
:10008000732A00080F0B0008732A0008732A00085F
:10009000732A0008732A0008732A0008732A0008CC
:1000A000732A0008732A0008732A0008732A0008BC
:1000B000732A0008732A0008732A0008732A0008AC
:1000C000732A0008732A0008732A0008732A00089C
:1000D000732A0008BD0D0008AF0F0008732A00083E
:1000E000732A0008732A0008732A0008732A00087C
:1000F000732A0008732A0008732A0008732A00086C
:10010000732A0008732A0008732A0008732A00085B
:10011000732A0008732A0008732A0008732A00084B
:10012000732A0008732A0008732A0008732A00083B
:10013000732A0008732A0008732A0008732A00082B
:10014000732A0008732A0008732A0008732A00081B
:10015000732A0008732A00081B0A0008732A000883
:10016000732A0008732A0008732A0008732A0008FB
:10017000732A0008732A0008732A0008732A0008EB
:10018000732A0008732A0008DFF80CD005F0D8FBAA
:1001900000480047210200089037002029480068E5
:1001A0006422B0FBF2F0411EB1F1807F00D31DE06C
:1001B00021F07F40401E4FF0E022506150170F2287
:1001C000002807DA13071D0E1F4B00F00F04241F31
:1001D0001D5503E013071C0E1C4B1C5400BF0020D0
:1001E0004FF0E02290610720106100BF0723184AFA
:1001F0000021184804F03CFF0823174A0021174843
:1002000004F036FF0923164A0021164804F030FF97
:1002100005E0002301221946184605F0A5FAF8E783
:1002200000F088FB03F0ABF93B230F4A0021AFF24B
:10023000930004F01DFF002005F01CFB03F090FA72
:1002400000BFFEE73400002018ED00E000E400E00D
:10025000A40E002011030008E4140020D3070008B6
:10026000640800206D0200082402002028E06423B6
:1002700000221146104605F077FA1021FE4801F0E1
:10028000E0FE642300221146104605F06DFA20219D
:10029000F94801F0D6FE642300221146104605F00D
:1002A00063FA0221F54801F0CCFE642300221146D6
:1002B000104605F059FA4FF40061F14801F0C1FE13
:1002C000D5E77CB504460D46EE480078A0421EDD19
:1002D000EC48007864281ADDEB48007801280DD13D
:1002E000EAA103C9CDE90001684600F0C7FE322348
:1002F00000221146104605F037FA00BFE1480470AD
:100300002946442000F0D2FE0020E24908707CBD5E
:1003100096B041208DF8480042208DF85000002012
:1003200004F025F8DC49086000210D460E468A4697
:100330003C20119000201090804604200F90002057
:100340000E901E200D904FF0000B5A200C90142799
:100350003C200B9000200A9009904FF03C0937E2B6
:1003600015AA0021CC48006804F08EF80446B9F1C3
:10037000000F03DDA9F1010000F0FF09C14800787A
:10038000322803D10998401CC0B2099009980A2864
:1003900006DBBC480078322802D16420B9490870D5
:1003A000BC480078012803D10A98401CC0B20A90CA
:1003B0000A98282802DB0020B6490870B248007865
:1003C00002280AD16420AF4908700020AE490870A5
:1003D0000120B049087000200A90601C08B14FF05D
:1003E000010804F1160008B14FF0020804F12B00D7
:1003F00008B14FF0030804F1400008B14FF00408C1
:10040000B8F1000F02DD119800FB07FA1098404583
:100410001BD00F98804518D1BBF1000F15D10B9858
:100420007843C117401BB1410FD296480078082885
:100430000ADD0C9800FB07FB08209249087097A181
:1004400090480078FFF73DFF0EE11098404529D015
:100450000F98804526D10E9820BB8A48007809283D
:10046000F2DD0D9878430E9009208649087005F05A
:1004700019FA092190FBF1F201FB1200401CC0B2F5
:10048000089089A103A8089A05F06CFA87A0029049
:1004900003A9029805F02AFA7A4800780299FFF732
:1004A00010FFE1E0607D04280BDA94F82A000428AC
:1004B00007DA94F83F00042803DA94F8540004287B
:1004C00024DB704800780A28BEDD0A206D490870D8
:1004D00005F0E8F9C117019000EBD16041110198D6
:1004E000A0EB4110401CC0B208906FA103A8089A6D
:1004F00005F038FA71A0029003A9029805F0F6F908
:10050000604800780299FFF7DCFEADE0607D0028CE
:100510000BDC94F82A00002807DC94F83F00002840
:1005200003DC94F8540000284ADD0B987843C11787
:10053000281A76EB010021D2524800780A28B0DD53
:100540000A205049087005F0ADF90D2190FBF1F239
:1005500001FB1200401CC0B2089053A103A8089AE6
:1005600005F000FA59A0029003A9029805F0BEF91F
:10057000444800780299FFF7A4FE75E041480078EE
:100580000A2871DD0A203F49087005F08BF94921DE
:1005900090FBF1F201FB1200401CC0B2089042A196
:1005A00003A8089A05F0DEF94BA0029003A902986F
:1005B00005F09CF9334800780299FFF782FE53E07A
:1005C00094F85600012803D094F85800012821D14E
:1005D0002C4800780A2847DD0A202A49087005F0CF
:1005E00061F9072190FBF1F201FB1200401CC0B23F
:1005F00008902DA103A8089A05F0B4F939A002903B
:1006000003A9029805F072F91E4800780299FFF7D5
:1006100058FE29E094F85500012803D094F85700BB
:10062000012821D1174800780A281DDD0A21154824
:10063000017005F037F9072190FBF1F201FB120080
:10064000401CC0B2089018A103A8089A05F08AF9C6
:1006500028A0029003A9029805F048F909480078FB
:100660000299FFF72EFE00BF0648007864284DD19E
:10067000206EB0F57A7F43E00000024000040240A3
:1006800000100240080000201E0000207E03151804
:10069000EF00000000000020040000207365787463
:1006A0006F702D6F75740000256400007365787499
:1006B0006F702D64657074682D0000007365786636
:1006C00072657175656E63792D00000073657873CE
:1006D000746172742D000000736578686967682D15
:1006E0000000000073657867726F616E2D6869673E
:1006F000682D000073657867726F616E2D000000D1
:1007000004DD32203D49087000200990B9F1000F46
:1007100026D13A480078322822DB3848007864280D
:100720000DD105F0BFF8062190FBF1F201FB12009C
:10073000401C00EB800080064FEA106910E02F4853
:10074000007832280CD105F0ADF8032190FBF1F2CE
:1007500001FB1200401C00EB800080064FEA10698C
:10076000CDF84080BAF1000F27DD6D1C46F1000680
:100770000B987843C117401BB14117D2BBF1000F52
:1007800014D111987843401E50450FD11B48007872
:1007900008280BDD0C9800FB07FB082017490870A0
:1007A000AFF2081115480078FFF78BFDAAF1010A96
:1007B000BAF1000F01D100252E460E98002802DD67
:1007C0000E98401E0E90BBF1000F01DDABF1010B46
:1007D000C6E59AB0642101A805F07DF80DE001A8F6
:1007E00000F0B8FC01A90648006803F00BFF3223B3
:1007F00000221146104604F0B7FFF0E70800002081
:10080000040000201CB50121132001F0D9FD302087
:10081000009001208DF8040003208DF80500694642
:10082000404801F087FB0220009001208DF8040071
:1008300003208DF8050069463B4801F07BFB3C2016
:10084000009000208DF8040001208DF8070003209F
:100850008DF805006946354801F06CFB1CBD00E0D1
:10086000401E0028FCD1704710B510212D4801F022
:10087000DDFB20212B4801F0D9FB02212A4801F0A1
:10088000D5FB4FF40061294801F0D0FB2848FFF761
:10089000E6FF1021234801F0CBFB2021214801F085
:1008A000C7FB0221204801F0C3FB4FF400611F4841
:1008B00001F0BEFB1E48FFF7D2FF10BD10B5044685
:1008C0001021184801F0B2FB2021164801F0AEFBC0
:1008D0000221154801F0AAFB4FF40061134801F012
:1008E000A5FB012C06D0022C09D0032C0CD0042C23
:1008F00015D10EE010210B4801F09AFB10E02021E9
:10090000084801F095FB0BE00221074801F090FB3D
:1009100006E04FF40061054801F08AFB00E000BFEB
:1009200000BF10BD00000240000402400010024061
:10093000FFFF4F0010B5FFF765FF00F0F5FB00F07B
:1009400025F900F071F900F0AFFD00F0DEFA10BDFE
:1009500000B58FB00121880501F032FD7E4801F01D
:10096000A7F84FF0006000907C4801907C4802900E
:10097000002003904FF480600490002005904FF415
:10098000806006900020079008904FF480700990D6
:100990004FF440300A9000200B900C900D900E9078
:1009A00069466D4801F026F9002000F0C9F80121E0
:1009B000694801F059F96848303001F079F84FF092
:1009C00000600090654801906648029040200390C6
:1009D00000010490002005904FF4806006900020F4
:1009E0000790089009904FF440300A9000200B9037
:1009F0000C900D900E9069465748303001F0FAF88F
:100A0000012210215448303001F0BBF90021524836
:100A1000303001F029F90FB000BD10B552494E48F1
:100A2000303001F0CBF960B14F494B48303001F024
:100A3000EFF900204D49087000214748303001F09F
:100A400013F910BD00B58FB00121480501F0B8FCC5
:100A5000474801F02DF84FF00060009045480190A4
:100A600045480290002003904FF4806004900020DD
:100A700005904FF4806006900020079008904FF496
:100A8000807009904FF440300A9000200B900C9039
:100A90000D900E906946364801F0ACF8002000F049
:100AA0004FF80121324801F0DFF83148183000F0EA
:100AB000FFFF4FF0006000902E4801902F480290F9
:100AC0004020039000010490002005904FF48060C6
:100AD000069000200790089009904FF440300A904B
:100AE00000200B900C900D900E9069462048183015
:100AF00001F080F8012210211D48183001F041F961
:100B000000211B48183001F0AFF80FB000BD10B540
:100B10001B491748183001F051F980B118491448A1
:100B2000183001F075F900201649087000211048AE
:100B3000183001F099F88021134801F079FA10BDBE
:100B400000F01F02012191404209920002F1E022CF
:100B5000C2F8001170470000886402400410014090
:100B6000E8200020E8140020008000280900002070
:100B70008860024004440040E81C0020E81800207F
:100B8000008020200A000020000C024008B500214F
:100B90004FF0006000F01AFD4FF4407000F0DCFCF4
:100BA00025208DF8000000208DF801008DF802004E
:100BB00001208DF80300684600F0D3FC26208DF854
:100BC000000000208DF8010001208DF802008DF852
:100BD0000300684600F0C5FC14208DF800004FF4B7
:100BE000407000F0B9FC00208DF8010002208DF863
:100BF000020001208DF80300684600F0B2FC40209E
:100C00008DF800004FF4407000F0A6FC00208DF835
:100C1000010003208DF8020001208DF803006846D2
:100C200000F09FFC08BD000000B589B0012109203B
:100C300001F0C6FB0121102001F006FCFE4801F086
:100C4000FDFC03A801F0AEFD01A801F0C7FD0220E4
:100C50008DF820008DF8210000208DF82200012061
:100C60008DF823004002079007A9F44801F062F9CB
:100C700007220921F14801F0E8F94FF4806007905C
:100C800007A9EE4801F056F907220A21EB4801F0C6
:100C9000DCF901A9E84801F091FD4FF4E13003903F
:100CA0000020ADF81000ADF81200ADF81400ADF85A
:100CB00018000820ADF8160003A9DF4801F00CFD6C
:100CC0000121DD4801F090FD09B000BD00B589B0FB
:100CD0000121082001F074FB0121480401F0A3FB6D
:100CE000D74801F0ABFC03A801F05CFD01A801F0BE
:100CF00075FD02208DF820008DF8210000208DF870
:100D0000220001208DF823002020079007A9CD485C
:100D100001F010F907220521CA4801F096F9402098
:100D2000079007A9C74801F005F907220621C54821
:100D300001F08BF901A9C24801F040FD4FF4E13008
:100D400003904FF48050ADF810000020ADF8120071
:100D50004FF48060ADF814000020ADF818000C20AE
:100D6000ADF8160003A9B64801F0B6FC002240F227
:100D70002551B34801F0EEFD012240F22441B04874
:100D800001F0E8FD01224021AD4801F0DAFD01212A
:100D9000AB4801F029FD40F22661A94801F04CFE64
:100DA0008020079002208DF8210001208DF820007E
:100DB00007A9A44801F0BEF809B000BD70B5002431
:100DC00001F064FF0546A0480078401C9E49087069
:100DD000284601F05FFF40F22441974801F0F5FDFD
:100DE00028B195480088C4B293488088C4B240F2C4
:100DF0002661914801F0E9FD20B140F226618E485C
:100E000001F01AFE02F0E9FB70BD70B504460D4614
:100E1000002605E0761C4FF6FF70864200D303E003
:100E20008A4800780028F5D100BF01208749087062
:100E300087480460A9B286480C3800F036FF0121CB
:100E400083480C3800F010FF70BD10B5024600203A
:100E500000BF0AE0135C784CA38000BF764B1B8870
:100E600003F04003002BF9D0401C8842F2D310BDA0
:100E700070B504460D4600268021724801F0D6F870
:100E800005E0761C4FF6FF70864200D303E0714800
:100E900000780028F5D100BF01206E4908706E4827
:100EA0000460A9B26C480C3800F0FFFE01216A48CA
:100EB0000C3800F0D9FE70BD00E0401E0028FCD1C7
:100EC000704770B505460E46002480215D4801F04C
:100ED000ADF84FF49670FFF7EFFF00BF0BE0285D11
:100EE0005749091D088000BF5548008800F04000A0
:100EF0000028F9D0641CB442F1D33220FFF7DCFFA4
:100F00008021504801F094F870BD00B587B00121F0
:100F1000082001F055FA0121480401F084FA072263
:100F20000521484801F091F807220621454801F0C3
:100F30008CF86020059002208DF818008DF81900BB
:100F400000208DF81A0001208DF81B0005A93D48EE
:100F500000F0F0FF4FF4165001900020ADF80800AB
:100F6000ADF80A00ADF80C00ADF810000C20ADF89B
:100F70000E0001A9324801F0AFFB0121304801F019
:100F800033FC012240F225512D4801F0E3FC2620DC
:100F90008DF8000003208DF801008DF8020001207B
:100FA0008DF80300684600F0DCFA07B000BD70B5AC
:100FB000002401F06BFE054623480078401C2249BE
:100FC0000870284601F066FE40F225511C4801F0E9
:100FD000FCFC00284FD01A4801F035FCC4B21F4871
:100FE0000078012804D11E480078401C1C49087074
:100FF0007E2C05D10120194908700020184908707D
:10100000042C08D016480078012804D10020134988
:10101000087013490870512C08D011480078022834
:1010200004D100200D4908700D490870EF2C22D121
:101030000B480078022815E0001001400000024033
:1010400000440040000C0240610000200900002024
:10105000C46402400A000020AC6002401F0000206F
:101060002000002007DD02202949087000202949BE
:1010700008702949087002F0B0FA70BD70B50546D5
:101080000024284604F03EFCC6B200BF0BE0295DF8
:10109000224801F0D4FB00BF4021204801F07FFC32
:1010A0000128F9D1641CB442F1D370BD2DE9FE438F
:1010B00004460D46284604F025FCC6B2F01CC7B213
:1010C00007EB0408002002E0295C8844401CB04281
:1010D000FADB08F0FF09CDF8089011A00068019034
:1010E00010A0006800908DF801708DF8024029462C
:1010F000684604F0FBFB02A9684604F0F7FB01A96F
:10110000684604F0F3FB6846FFF7B8FFBDE8FE83CE
:101110001E0000201F00002020000020004400408E
:10112000EF0000007E0000001CB50121042001F04A
:1011300047F94FF47070009000208DF804000120F2
:101140008DF8070003208DF805006946D44800F0AB
:10115000F1FE1CBD2DE9FC5F04464FF00A0807278D
:101160004FF000094FF0000A4FF0000B00200190F3
:1011700000902078461E002E00DA13262078451CA9
:10118000132D00DD00252178601C415C805D8142CB
:1011900002D0607D401E60752178601C415C405D1E
:1011A000814202D0607D401E6075217804F11600F6
:1011B000415C805D814204D094F82A00401E84F88E
:1011C0002A00217804F11600415C405D814204D080
:1011D00094F82A00401E84F82A00217804F12B009C
:1011E000415C805D814204D094F83F00401E84F849
:1011F0003F00217804F12B00415C405D814204D026
:1012000094F83F00401E84F83F00217804F140002C
:10121000415C805D814204D094F85400401E84F803
:101220005400217804F14000415C405D814204D0CB
:1012300094F85400401E84F8540030E0A8F10108EE
:101240004021974800F0D8FE012801D109F1010999
:101250008021934800F0D0FE012801D10AF1010A53
:101260004FF480718E4800F0C7FE012801D10BF1C8
:10127000010B4FF400718A4800F0BEFE012802D134
:101280000198401C0190022000F04CF9009908449C
:101290000090012300221146104604F065FAB8F1CF
:1012A000000FCBDCB94504DB01212278601C81549E
:1012B00003E000212278601C8154BA4505DB01213E
:1012C000227804F11600815404E00021227804F110
:1012D00016008154BB4505DB0121227804F12B0067
:1012E000815404E00021227804F12B0081540198FC
:1012F000B84205DB0121227804F14000815404E06A
:101300000021227804F1400081544FF48051654857
:1013100000F072FE012802D184F8550002E000209E
:1013200084F855004FF400515E4800F065FE012836
:1013300002D184F8560002E0002084F856004FF4F1
:101340008041584800F058FE012802D184F8570027
:1013500002E0002084F857004FF40041514800F0AB
:101360004BFE012802D184F8580002E0002084F8E6
:1013700058004FF480714B4800F03EFE012802D126
:1013800084F8590002E0002084F859004FF40071FD
:10139000444800F031FE012802D184F85A0002E0EE
:1013A000002084F85A004FF480613E4800F024FE8B
:1013B000012802D184F85B0002E0002084F85B0081
:1013C0004FF40061374800F017FE012802D184F87D
:1013D0005C0002E0002084F85C000098B0FBF8F0AC
:1013E00020662178601C415C805D814202D0607D76
:1013F000401C60752178601C415C405D814202D0D8
:10140000607D401C6075217804F11600415C805DB0
:10141000814204D094F82A00401C84F82A002178E4
:1014200004F11600415C405D814204D094F82A002A
:10143000401C84F82A00217804F12B00415C805D77
:10144000814204D094F83F00401C84F83F0021788A
:1014500004F12B00415C405D814204D094F83F00D0
:10146000401C84F83F00217804F14000415C805D1D
:10147000814204D094F85400401C84F85400217830
:1014800004F14000415C405D814204D094F8540076
:10149000401C84F854002078401C2070BDE8FC9F5C
:1014A00000080240000C024000B58DB00121084642
:1014B00000F086FF0121080200F0C6FF04200B9017
:1014C00003208DF8300000208DF833000BA9204850
:1014D00000F030FD0121080201F01EF800214FF458
:1014E000807001F019F8002007900A9009904FF4DD
:1014F0008030089007A800F0D9F8002001908DF8FE
:1015000008008DF809000390059001208DF818005F
:1015100001A9104800F09BF801210E4800F0DDF809
:101520000DB000BD10B5044607230122214609482D
:1015300000F013F9074800F06CF900BF02210548DC
:1015400000F092FA0028F9D0024800F0A3F910BD8B
:10155000000002400020014032490143324A11603C
:10156000704770B5002100230F22C4781CB32E4CA5
:10157000246804F4E064C4F5E064C4F30721C1F115
:101580000404E3B20A4144789C40E1B284781440F8
:1015900021430C07210E254C05786155047804F091
:1015A0001F050124AC4005786D11AD0005F1E02563
:1015B000C5F8004109E0047804F01F050124AC409F
:1015C0001B4D0678761145F8264070BD194A0A4031
:1015D0000243154B1B1F1A60704739B1124A121D86
:1015E00012680243104B1B1D1A6006E00E4A121DC2
:1015F000126882430C4B1B1D1A607047042808D1E7
:101600004FF0E021096941F004014FF0E02211613F
:1016100007E04FF0E021096921F004014FF0E022DA
:10162000116170470000FA050CED00E000E400E0F5
:1016300080E100E080FFFF1F10B50121080200F0EB
:101640006BFF00214FF4807000F066FF10BD30B5D5
:101650000246002000235068FB4C20400D790C68A6
:1016600044EA0524204350609068F84C2040D1E9BA
:1016700003542C438D682C434D7944EA45042043A0
:101680009060D06A20F470000C7D641EE4B22343A5
:1016900040EA0350D06230BD002101600171417108
:1016A0008160C16001610121017570470021E84A34
:1016B0001168E84A1140D0E900231A4383681A43AD
:1016C000C3681A431143E44AC2F804137047002167
:1016D000016041608160C160704721B1826842F061
:1016E0000102826003E0826822F00102826070479A
:1016F0000A4600214168D94B1940114341607047A7
:101700004162826270470A460021416821F01F0150
:1017100011434160704738B1CD49096841F4000177
:10172000CD4AC2F8041306E0C949096821F4000152
:10173000C94AC2F80413704738B1C549096841F471
:101740008001C54AC2F8041306E0C149096821F4C2
:101750008001C14AC2F804137047F0B504460D4633
:1017600000200021092D11DDE068A5F10A0606EB35
:101770004607072606FA07F18843A5F10A0606EB95
:10178000460603FA06F10843E0600CE0206905EB29
:101790004507072606FA07F1884305EB450603FAD5
:1017A00006F108432061072A0FDA606B561E06EB2C
:1017B00086071F2606FA07F18843561E06EB8606A3
:1017C00005FA06F10843606322E00D2A0FDA206B68
:1017D000D61F06EB86071F2606FA07F18843D61F99
:1017E00006EB860605FA06F10843206310E0E06A7E
:1017F000A2F10D0606EB86071F2606FA07F18843BD
:10180000A2F10D0606EB860605FA06F10843E06232
:10181000F0BD816841F0804181607047816821F0AE
:10182000804181607047014600208A6802F480028E
:101830000AB1012000E00020704721B1826842F423
:101840008062826003E0826822F480628260704776
:1018500021B1826842F00202826003E0826822F0D5
:1018600002028260704710B50A46002100234168D9
:1018700021F46041531E41EA4331416010BD21B162
:10188000426842F40062426003E0426822F400626F
:10189000426070470146C86C80B270470146C86C10
:1018A00000B270476A48001D0068704721B1826825
:1018B00042F48072826003E0826822F48072826067
:1018C000704721B1826842F40072826003E082684E
:1018D00022F400728260704738B15D49096841F4B2
:1018E00000515D4AC2F8041306E05949096821F421
:1018F0000051594AC2F804137047F0B50446154622
:10190000002000220026092911DDE068A1F10A0764
:1019100007EB470C072707FA0CF29043A1F10A07DF
:1019200007EB470703FA07F21043E0600CE0206979
:1019300001EB410C072707FA0CF2904301EB41073A
:1019400003FA07F210432061A06BC0F30156EF1CAD
:1019500006F1010CA7EB0C0707EB870C1F2707FA12
:101960000CF29043EF1C06F1010CA7EB0C0707EB00
:10197000870701FA07F21043A063F0BD10B50A46CD
:1019800000210023816B21F44011531E41EA0351D1
:10199000816310BD08B5002300930090009B0B44A9
:1019A0000093009B1A6008BD0A460021816821F45B
:1019B00070211143816070470A460021816821F43B
:1019C0004011114381607047816841F4800181605A
:1019D0007047014600208A6802F480020AB10120A3
:1019E00000E00020704721B1426842F4806242600A
:1019F00003E0426822F480624260704721B142688D
:101A000042F48052426003E0426822F48052426015
:101A1000704708B5024600200090009201F12800AE
:101A2000009B184400900098006880B208BD10B573
:101A30000B460021D9B2012404FA01F182B14468B5
:101A40000C4344600FE00000FFFEFFFCFDF7FFC009
:101A500004230140E030FCFF00200140FFFD3FFF78
:101A600044688C43446010BD0246002013680B405C
:101A70000BB1012000E000207047CA4302607047AC
:101A800070B502460020002300240B125568012681
:101A90008E4005EA060415681D4015B10CB1012001
:101AA00000E0002070BD00220A12D343036070479B
:101AB000016821F001010160002101604160816045
:101AC000C160016121214161DB49884204D13D218E
:101AD000D94A103A91608CE0D7491831884205D133
:101AE0004FF47461D44A103A916082E0D2493031A7
:101AF000884205D14FF47411CF4A103A916078E0D2
:101B0000CD494831884205D14FF07461CA4A103A34
:101B100091606EE0C8496031884204D1C749C64A25
:101B2000103AD16065E0C4497831884204D1C44993
:101B3000C14A103AD1605CE0BF499031884204D17B
:101B4000C049BD4A103AD16053E0BB49A831884230
:101B500005D14FF03D51B84A103AD16049E0BA4939
:101B6000884204D13D21B84A083A116041E0B649A3
:101B70001831884205D14FF47461B34A083A1160B4
:101B800037E0B1493031884205D14FF47411AE4A83
:101B9000083A11602DE0AC494831884205D14FF038
:101BA0007461A94A083A116023E0A749603188426C
:101BB00004D1A249A44A121F11601AE0A249783147
:101BC000884204D19E49A04A121F116011E09E492B
:101BD0009031884204D19B499B4A121F116008E052
:101BE0009949A831884204D14FF03D51964A121FBD
:101BF0001160704710B500220268944B1A40CC68FF
:101C00000B6823434C6923438C692343CC692343EA
:101C10000C6A23434C6A23438C6A23434C6B234353
:101C20008C6B23431A430260426922F00702D1E918
:101C30000B3423431A4342610B6943604B68836052
:101C40008B68C36010BD0021016041608160C1608C
:101C5000016141618161C161016241628162C16270
:101C6000016341638163704721B1026842F0010260
:101C7000026003E0026822F001020260704721B1B5
:101C8000026842F40042026003E0026822F400426B
:101C90000260704721B1026842F02002026003E056
:101CA000026822F0200202607047416070470146DE
:101CB000486880B2704722B1036843F40023036090
:101CC00003E0036823F4002303600161704721B13E
:101CD000026842F48022026003E0026822F480225B
:101CE000026070470AB1016100E0C16070470146BF
:101CF00000200A6802F400220AB1012000E000205E
:101D00007047014600200A6802F001020AB1012072
:101D100000E000207047014600204A6902F03800C8
:101D2000704730B503460A4600200024464DAB42BA
:101D300002D24149103901E04349103902F00055FF
:101D40000DB14C6800E00C68414D2C4004EA0205DE
:101D50000DB1012000E0002030BD02463A4B9A420E
:101D600002D23548103801E03748103801F00053EE
:101D70001BB1374B0B40C36002E0354B0B40836017
:101D8000704710B501F080034BB122B1436943F0B5
:101D90008003436103E0436923F0800343618029AA
:101DA0000BD02AB1036801F01E042343036004E052
:101DB000036801F01E04A343036010BD70B5024622
:101DC000002000240025204EB24202D21A4B103BC4
:101DD00001E01D4B103B1F4E0E4036B11E2606EA99
:101DE000D124166806EA040502E0566906F080056B
:101DF00001F000560EB15C6800E01C68144E3440DF
:101E000004EA010616B10DB1012000E0002070BD0A
:101E100002460D4B9A4202D20748103801E00A48A8
:101E2000103801F000531BB1094B0B40C36002E0B6
:101E3000074B0B4083607047106002403D0000205C
:101E4000400F002000003D20106402403F801CF045
:101E50007D0F7D0F3C0F3C0F10B504468C4884422B
:101E600008D10121084600F000FB0021012000F00C
:101E7000FCFA5EE08748844208D10121022000F08C
:101E8000F4FA0021022000F0F0FA52E08248844285
:101E900008D10121042000F0E8FA0021042000F01C
:101EA000E4FA46E07D48844208D10121082000F090
:101EB000DCFA0021082000F0D8FA3AE078488442A1
:101EC00008D10121102000F0D0FA0021102000F0EC
:101ED000CCFA2EE07348844208D10121202000F082
:101EE000C4FA0021202000F0C0FA22E06E488442AB
:101EF00008D10121402000F0B8FA0021402000F074
:101F0000B4FA16E06948844208D10121802000F02B
:101F1000ACFA0021802000F0A8FA0AE0644884426C
:101F200007D10121801500F0A0FA0021A01500F0D2
:101F30009CFA10BDF0B50A4600210023002400BF22
:101F40003DE0012505FA01F3156805EA03049C420A
:101F500034D105684F000326BE40B54305601579AE
:101F60004E00B5400668354305601579012D02D055
:101F70001579022D16D185684F000326BE40B54362
:101F8000856055794E00B540866835438560456863
:101F900001268E40B5434560456896798E40B6B2BD
:101FA00035434560C5684F000326BE40B543C56054
:101FB000D5794E00B540C6683543C560491C102927
:101FC000BFD3F0BD4FF6FF71016000210171417177
:101FD0008171C171704708B54FF480320092009A48
:101FE0000A430092009AC261C161009AC261C2694B
:101FF0000092C269009208BD0246002013690B409E
:102000000BB1012000E0002070470146086980B252
:1020100070470246002053690B400BB1012000E0DD
:10202000002070470146486980B2704701837047BD
:10203000418370470AB1018300E0418370474161E9
:10204000704742694A4042617047F0B5002300245E
:102050004D07ED0E02FA05F3CE1000F1200555F8FC
:1020600026504E07F70E0F26BE40B543CF1000F1A5
:10207000200646F82750CE1000F1200555F82650CE
:1020800045EA0304CE1000F1200545F82640F0BDD6
:10209000000002400004024000080240000C024020
:1020A000001002400014024000180240001C0240D0
:1020B00000200240FA48006840F00100F84908603A
:1020C0000020F74908310860F5480068F5490840E4
:1020D000F3490860F448091D0860081F006820F4EF
:1020E0008020091F08600020ED490C31086070470E
:1020F0000021EB4A921C117011460870704710B510
:1021000001460022002300204A11012A02D1E44C9A
:10211000236808E0022A03D1E14C7034236802E00E
:10212000DF4C7434236801F01F02012494401C40EA
:102130000CB1012000E0002010BD38B50020009057
:102140000024002500BF3120FFF7D9FF0546009885
:10215000401C00900098B0F5A06F01D0002DF2D087
:102160003120FFF7CCFF08B1012400E00024204615
:1021700038BD01460020CA4A106820F0F80040EA45
:10218000C10010607047C949086070470021C44A07
:10219000703211701170012802D004280AD104E0B5
:1021A0000121BF4A7032117005E00521BC4A70322E
:1021B000117000E000BF00BF7047BD490860704764
:1021C00070B5049C41EA82150126C6EB530645EA28
:1021D0000645054345EA0465B14E361D356070BDC0
:1021E000B24908667047820142EA0172AC4B8433FF
:1021F0001A607047AD4988667047AC49C86470473B
:1022000002460020A64B0833186820F0EC6042EA32
:1022100001031843A24B08331860704702460020A0
:102220009F4B0833186820F0784042EA01031843B6
:102230009B4B08331860704701460020984A0832CB
:10224000106820F00300084310607047944808307D
:10225000006800F00C00704701460020904A0832E8
:10226000106820F0F000084310607047014600201D
:102270008B4A0832106820F4E05008431060704721
:1022800001460020864A0832106820F4604040EA87
:10229000C10010607047F0B5002100220024022523
:1022A000002602237E4F08373F6807F00C0121B15A
:1022B000042905D0082937D105E07E4F076036E0B4
:1022C0007D4F076033E0764F3F1D3F68C7F3805670
:1022D000734F3F1D3F6807F03F036EB1764FB7FB6A
:1022E000F3F7DFF8BCC10CF1040CDCF800C0CCF350
:1022F000881C07FB0CF40CE06E4FB7FBF3F7DFF81C
:10230000A0C10CF1040CDCF800C0CCF3881C07FB66
:102310000CF4634F3F1D3F68C7F301477F1C7D00EE
:10232000B4FBF5F7076002E0624F076000BF00BF33
:102330005B4F08373F6807F0F00109095F4F7A5C8F
:102340000768D7404760564F08373F6807F4E051A9
:10235000890A5A4F7A5C4768D7408760504F0837E0
:102360003F6807F46041490B544F7A5C4768D74097
:10237000C760F0BD002100F44072B2F5407F0AD181
:10238000474A0832116821F4F8114D4A02401143BE
:10239000434A08321160424A70321268C0F30B039C
:1023A0001A433F4B70331A60704741494439086003
:1023B00070473F494039086070474249086070479C
:1023C00039B1374A303212680243354B30331A6024
:1023D00006E0334A303212688243314B30331A60A0
:1023E000704739B12E4A3432126802432C4B3433D1
:1023F0001A6006E02A4A343212688243284B34338A
:102400001A60704739B1264A383212680243244BA9
:1024100038331A6006E0224A383212688243204B71
:1024200038331A60704739B11D4A4032126802438E
:102430001B4B40331A6006E0194A4032126882434F
:10244000174B40331A60704739B1154A443212684D
:102450000243134B44331A6006E0114A44321268B7
:1024600082430F4B44331A60704739B10C4A103223
:10247000126802430A4B10331A6006E0084A103211
:1024800012688243064B10331A607047E1B1044A68
:10249000143212680243024B14331A6019E0000030
:1024A00000380240FFFFF6FE1030002400004742D3
:1024B000800E47420024F40040787D012100002076
:1024C000FFFCFF0F5C0147425B4A126882435A4B94
:1024D0001A60704739B1584A121D12680243564BB0
:1024E0001B1D1A6006E0544A121D12688243524BAB
:1024F0001B1D1A60704739B14F4A0C3212680243F3
:102500004D4B0C331A6006E04B4A0C321268824382
:10251000494B0C331A60704739B1474A1032126880
:102520000243454B10331A6006E0434A10321268EA
:102530008243414B10331A60704739B13E4A3C32F6
:10254000126802433C4B3C331A6006E03A4A3C3284
:1025500012688243384B3C331A60704739B1364AAF
:10256000403212680243344B40331A6006E0324A6C
:10257000403212688243304B40331A60704739B1A1
:102580002D4A4432126802432B4B44331A6006E052
:10259000294A443212688243274B44331A607047F9
:1025A00039B1254A4C3212680243234B4C331A602E
:1025B00006E0214A4C32126882431F4B4C331A60AA
:1025C000704739B11C4A5032126802431A4B5033DB
:1025D0001A6006E0184A503212688243164B503394
:1025E0001A60704739B1144AD21F12780243124B55
:1025F000DB1F1A7006E0104AD21F127882430E4B7E
:10260000DB1F1A7070470C486030006840F0807023
:10261000094960310860704701460020064A083ABF
:1026200012680A400AB1012000E000207047024908
:10263000891F0870704700001438024010B5044626
:10264000F748844208D101211020FFF765FF0021DF
:102650001020FFF761FF3EE0F248844209D10121DA
:102660004804FFF748FF00214FF40030FFF743FF15
:1026700031E0ED48844209D101218804FFF73BFF96
:1026800000214FF48020FFF736FF24E0E748844222
:1026900009D10121C804FFF72EFF00214FF40020CB
:1026A000FFF729FF17E0E248844209D1012108051C
:1026B000FFF721FF00214FF48010FFF71CFF0AE015
:1026C000DC48844207D101212020FFF725FF0021AB
:1026D0002020FFF721FF10BD2DE9FF4705460E46DC
:1026E0000024A14600BFA046B08900B100BF2C8ADB
:1026F00024F44054F08804432C82AC8941F20C60ED
:102700008443B08831890843718908430443AC810C
:10271000AC8A24F44074B0890443AC826846FFF765
:10272000BAFDBF48854202D0C248854202D1DDF8D9
:102730000C9001E0DDF80890A88900F4004040B159
:1027400009EBC90000EB091031684900B0FBF1F753
:1027500007E009EBC90000EB091031688900B0FB04
:10276000F1F76420B7FBF0F004012009642101FBBC
:102770001078A88900F4004040B1322000EBC80076
:10278000B0FBF1F000F00700044308E0322000EB5A
:1027900008106421B0FBF1F000F00F0004432C811D
:1027A000BDE8FF874FF41651016000218180C18090
:1027B00001810C21418100218181704710B50246C1
:1027C0000020108A20F470600B884C8823438C888A
:1027D0002343CC8823431843108210BD002101807D
:1027E00041808180C180704721B1828942F40052CA
:1027F000828104E082894DF6FF731A40828170471E
:10280000028B02F47F420283028B0A4302837047E9
:1028100021B1828942F40042828103E08289C2F3BD
:102820000E028281704721B1828A42F40062828264
:1028300004E0828A4FF2FF731A4082827047C1F32C
:1028400008028280704701468888C0F308007047FC
:10285000028A4FF6F0731A400282028A0A43028209
:10286000704721B1828942F00202828104E08289AC
:102870004FF6FD731A408281704782894FF2FF73D1
:102880001A40828182890A4382817047028A4FF608
:10289000DF731A400282028A0A430282704721B122
:1028A000028A42F48042028204E0028A4BF6FF73FD
:1028B0001A4002827047818941F00101818170478D
:1028C00021B1828A42F00802828204E0828A4FF6B5
:1028D000F7731A4082827047028BD2B20283028B56
:1028E00042EA01220283704721B1828A42F020022B
:1028F000828204E0828A4FF6DF731A408282704738
:1029000021B1828A42F01002828204E0828A4FF66C
:10291000EF731A4082827047828A4FF6FB731A4027
:102920008282828A0A438282704721B1828A42F07F
:102930000202828204E0828A4FF6FD731A4082828C
:1029400070471AB1838A0B43838202E0838A8B43E8
:1029500083827047F0B5034600240026002500203E
:1029600040F66A17B94200D100BF1846C1F34214BD
:1029700001F01F06012707FA06F5012C01D10C30E2
:1029800004E0022C01D1103000E014301AB10768C5
:102990002F43076002E00768AF430760F0BD0246BF
:1029A0000020B1F5007F00D100BF13880B400BB1B0
:1029B000012000E00020704701F40072B2F5007FB2
:1029C00000D100BFCA430280704770B502460024A0
:1029D00000230025002040F66A16B14200D100BF56
:1029E000C1F3421501F01F03012606FA03F3012D7E
:1029F00002D19689334006E0022D02D1168A334077
:102A000001E0968A33400C12012606FA04F4168877
:102A1000344013B10CB1012000E0002070BD000073
:102A2000001001400044004000480040004C0040BD
:102A3000005000400014014010B50022002340F671
:102A40006A14A14200D100BF0A1201249440A3B22B
:102A5000DC43048010BD000006488047064800475C
:102A6000FEE7FEE7FEE7FEE7FEE7FEE7FEE7FEE73E
:102A7000FEE7FEE7592B0008890100080CB500208D
:102A8000019000907648006840F4803074490860F6
:102A900000BF7348006800F4003000900198401CAB
:102AA0000190009818B90198B0F5A06FF1D16C4869
:102AB000006800F4003010B10120009001E0002017
:102AC00000900098012846D165484030006840F0E9
:102AD00080506349403108606248006840F480409B
:102AE000604908605E48083000685D490831086048
:102AF0000846006840F4004008600846006840F45A
:102B0000A05008605848091F0860081F006840F07E
:102B10008070091F086000BF5148006800F0007015
:102B20000028F9D040F20560504908604C48083050
:102B3000006820F003004A49083108600846006830
:102B400040F00200086000BF45480830006800F00F
:102B50000C000828F8D10CBD10B54548006840F4B9
:102B60007000434908603E48006840F001003C495D
:102B7000086000203A4908310860394800683D493A
:102B80000840374908603C48091D0860081F006874
:102B900020F48020091F0860002031490C310860B2
:102BA000FFF76CFF4FF0006031498039086010BDBD
:102BB00070B500200022022300240221284D083590
:102BC0002D6805F00C0020B1042806D0082834D167
:102BD00007E02A4D2A4E356033E02A4D284E3560F5
:102BE0002FE01F4D2D1D2D68C5F380541C4D2D1D4C
:102BF0002D6805F03F0154B1224DB5FBF1F5184E9B
:102C0000361D3668C6F3881605FB06F209E01B4D33
:102C1000B5FBF1F5124E361D3668C6F3881605FB76
:102C200006F20F4D2D1D2D68C5F301456D1C6B007F
:102C3000B2FBF3F5124E356003E0104D104E3560D7
:102C400000BF00BF064D08352D68C5F303150E4EB5
:102C5000705D0B4D2D68C540094E356070BD00009C
:102C6000003802400070004019544007003C024008
:102C700088ED00E0FFFFF6FE103000240024F40091
:102C80003400002040787D0138000020EFF31080F0
:102C900072B6704780F31088704725484FF0FF01E7
:102CA0000170002080F30988224801210170224828
:102CB0004FF08051016062B6FEE71F484FF080512F
:102CC000016070471C484FF080510160704772B638
:102CD000EFF3098050B1A0F1200080E8F00FA0F1DF
:102CE000400080EC108B15490968086000B5144855
:102CF00080475DF804EB134813490A7802700F48C7
:102D000012490A680260106890EC108B00F14000D4
:102D100090E8F00F00F120002EF0100E80F30988EB
:102D20004EF0040E62B6704772B6704762B67047D6
:102D300022ED00E06E00002004ED00E074000020B1
:102D40003D2E000863000020640000207C0000206D
:102D500010B5FFF7E9FF10BD10B5FFF7E7FF10BD95
:102D600070477047704770477047F0B504460D468E
:102D70001046CC260660DD27061F3046376000214E
:102D800005E04FF0AA37061F30463760491C10296E
:102D9000F7D34FF08077061F30463760061F304666
:102DA00034603A4F061F304637604FF01237061F27
:102DB000304637604FF00337061F304637604FF01C
:102DC0000237061F304637607F10061F30463760D7
:102DD000061F304635604FF01137061F304637600A
:102DE0004FF01037061F304637604FF00937061F87
:102DF000304637604FF00837061F304637604FF0D7
:102E00000737061F304637604FF00637061F30463B
:102E100037604FF00537061F304637604FF00437F4
:102E2000061F30463760002105E04FF0BB37061F14
:102E300030463760491C1029F7D3F0BD7047704702
:102E400010B5FFF723FF044611480078401C1049D5
:102E500008702046FFF71EFF00F0B9FC00F0BDFB34
:102E600010BD411E4FF0E0225161FF21094A11704F
:102E70004FF0E021096941F005014FF0E0221161B6
:102E80001146096941F0020111617047E3560008DB
:102E90006100002023ED00E00146002002E0491C13
:102EA000421CD0B20A78002AF9D170472DE9F041CE
:102EB00005460E4614460027FA48007820B1112036
:102EC00020700020BDE8F0812878012808D0022871
:102ED00007D0032802D0042804D100E000BF00BFBF
:102EE00000BF03E0012020700020EBE700BFFFF7E8
:102EF000CDFE0746686930603068FFF7CDFF804639
:102F00003846FFF7C7FE002020704046DAE72DE97B
:102F1000F04105460E4614460027E248007818B1F5
:102F200012202070BDE8F0812878012808D00228FE
:102F300007D0032802D0042804D100E000BF00BF5E
:102F400000BF02E001202070ECE700BFFFF79EFE0B
:102F500007466E613846FFF79DFE0020207000BFD7
:102F6000E0E7F0B5024612F8384F95785678383ACF
:102F70000B4618680FE000F10B073F5DB74300F107
:102F80000B0C0CF8047067463F5D17B9877AAF43A6
:102F900087721B1D18680028EDD1F0BDC249C34AD5
:102FA0001278885CC249095CBF4A515C01EBC001E0
:102FB000C04A1170704710B50024FFF767FE044641
:102FC000B8480078F8B9BC480078E0B9FFF7E6FFE8
:102FD000BA48B849097850F82100B9490860B5489D
:102FE0000078B849097888420DD0B5480068C06BB0
:102FF000401CB3490968C863B3480068401CB24923
:103000000860FFF75AFE2046FFF744FE10BD70B57A
:1030100001460024AD4D2D68EC61AC4C2468216262
:103020000B4618681BE0A94C246894F8385000F14E
:103030000B04645DA54D2D6895F839502C43A34DC4
:103040002D6895F8386000F10B05AC55847A9F4DDA
:103050002D6895F83A502C4384721B1D186800287F
:10306000E1D19A4C246894F83820914CA45C974D97
:103070002D6895F83950AC438D4DAC542C46A45C6A
:1030800044B9924C246894F83A50884C2478AC4364
:10309000864D2C7070BD2DE9FF4F83B081460E46E2
:1030A0001546DDF84080002000903060CA46DAF80E
:1030B000004018E02078062807D2DFE800F0060478
:1030C000050307080AE009E008E000BF00BF01208F
:1030D00088F80000002007B0BDE8F08F00BF0AF1BB
:1030E000040ADAF80040002CE4D16E48007820B1E0
:1030F000022088F800000020EDE76F48007820B13A
:103100000D2088F800000020E5E7FFF7BFFD0090E4
:103110000020029083460190CA46DAF800405DE044
:103120002078062849D2DFE800F048172A03494AE8
:10313000208960B12089401E208110C601200290A4
:10314000002001C50BF101001FFA80FB03E001988C
:1031500040F0010001903CE0606858B1606801C532
:103160000020606010C6012002900BF101001FFAE0
:1031700080FB03E0019840F00200019029E06768BD
:10318000F88AA8B13969081D3861086801C5B968AD
:103190003869884201D178683861F88A401EF8821F
:1031A00010C6012002900BF101001FFA80FB03E022
:1031B000019840F0040001900BE000BF00BF0098B0
:1031C000FFF768FD00203060012088F800005846B5
:1031D00081E700BF0AF1040ADAF80040002C9FD111
:1031E0000298012809D1002030600098FFF752FDB5
:1031F000002088F8000058466DE73448006890F8D1
:103200003400019941F0800108433049096881F890
:10321000340000202D49096881F835002B490698B3
:10322000096808634846FFF7F2FE0098FFF732FD91
:10323000FFF7C1FEFFF72AFD00902448006890F8D0
:10324000350020B101281BD0022818D100E000BFB2
:103250001E480068C4693CB110C6002030600BF104
:1032600001001FFA80FB09E001201849096881F874
:103270003500494615480068FFF773FE06E000BFB9
:10328000494612480068FFF76CFE00BF00BF0F48B8
:10329000006890F83500D8B1012842D002283FD10B
:1032A00038E00000610000200A5B00086500002093
:1032B000660000206400002062000020282A002010
:1032C0007C000020630000204800002074000020E3
:1032D000207806280DD2DFE800F00C0607030D0E5B
:1032E000002001C511E000BFF7480068406A01C531
:1032F0000BE000BF00BF0098FFF7CCFC002030605F
:10330000012088F800005846E5E600BF002088F854
:1033100000000CE0002001C50E2088F8000006E047
:1033200000BF002001C50A2088F8000000BF00BFD0
:103330000020E549096881F83400E349096881F80B
:103340003500E1490968C861DF4909680862DE495A
:10335000096848620098FFF79DFC5846BBE67CB5BB
:10336000002514E06946284602F0C7F8064666B90B
:10337000D64850F8254044B1012C06D0D4E90201CA
:1033800000EB8100A0640198E064681CC5B23F2D89
:10339000E8D97CBD002402E0142002F0B7F9CC4843
:1033A00000780028F8D0CB4800686421B0FBF1F029
:1033B000C84908600846006828B90020C649087056
:1033C000FF2002F0DCF800BFFFF760FC0446C348B2
:1033D0000068C34908600020C04908602046FFF724
:1033E00059FCBF480068BB490968B0FBF1F0C0F167
:1033F0006400B9490870FFF7B7FCFFF7B0FF0A2077
:1034000002F084F9E0E700B587B0032000218022B4
:10341000B44BCDE90132CDE903104FF6FE703E23E7
:10342000B14A0090AFF2930001F079FE06AAAFA175
:103430003E2001F0E4FF07B000BD002400BFFFF70D
:1034400025FC0446A5480068401CA44908602046A5
:10345000FFF720FCFFF786FCF1E700B587B00320FB
:1034600000218022A54BCDE90132CDE903104FF6B2
:10347000FF703F23A24A0090AFF2410001F04FFEDF
:1034800006AAA0A13F2001F0BAFF07B000BD04E0EA
:10349000002200F8012B4A1E91B20029F8D1704792
:1034A00030B5F0219B48FFF7F2FF9A4B03F1180566
:1034B000002408E0002018705D6097A05861183360
:1034C0001835601C84B2092CF4D3002018705860A1
:1034D00091A058618F489149086030BD30B54FF4D4
:1034E000F2618F48FFF7D3FF4FF480717748FFF701
:1034F000CEFF8B4B03F15805002406E05D6186A0EA
:10350000186558335835601CC4B2152CF6D300200A
:10351000586181A01865002082490860804882496E
:10352000086030BD0022814B1A708149002004E000
:10353000002201F8012B421CD0B20828F8D3002247
:103540007C4B1A707C4B1A707C4B1A605E4B1A6075
:10355000704700207A4908607A4908707A490870F3
:103560007A4908707A4908707A4908605B490860AE
:103570005B4908605749086055490870704710B5A5
:10358000FFF7E6FBFFF7E5FFFFF7CCFFFFF7A6FF2E
:10359000FFF786FF00F0B2FE01F08BF901F087FC27
:1035A000FFF75BFFFFF72FFFFFF7D6FB10BD10B54E
:1035B0000024FFF76BFB044665480078012808D11A
:1035C00060480078FF2804D25E480078401C5D49BE
:1035D00008702046FFF75EFB10BD10B500245C4864
:1035E0000078012830D1FFF751FB04465548007898
:1035F00020B154480078401E524908705148007864
:10360000F8B951480078E0B9FFF7C8FC2F484A499B
:10361000097850F821004949086047480078454931
:10362000097888420DD045480068C06B401C43496A
:103630000968C86347480068401C46490860FFF7AE
:1036400041FB2046FFF726FB10BD10B50024404883
:103650000078012811D1FFF719FB0446394800789A
:1036600040B939480078FF2804D237480078401C18
:10367000354908702046FFF70DFB10BD10B500243A
:103680003348007801286AD1FFF700FB04462E4832
:103690000078C0B12C480078401E2B4908700846BD
:1036A000007860B92748007828B92046FFF7F2FA79
:1036B000FFF781FC53E02046FFF7ECFA4FE020468D
:1036C000FFF7E8FA4BE047E074000020282A0020CA
:1036D00060000020580000205400002070000020EE
:1036E0005C000020282600202428002075432F4F4E
:1036F000532D49492053746174000000282800208C
:10370000242A002075432F4F532D49492049646CCA
:1037100065000000E82400203F0000004C0000206D
:10372000282B002080000020780000206500002069
:103730006600002063000020640000207C00002060
:103740009000002061000020620000206F00002037
:103750006E000020480000202046FFF79BFA10BDB5
:1037600010B5E948007890B9FFF718FCE7480078F1
:10377000E7490870E748E549097850F82100E6492B
:10378000086008460068E5490860FFF786FA10BD42
:1037900010B50024022001F0B9FFFFF777FA0446C4
:1037A0000020DF4908602046FFF774FA0A2001F084
:1037B000ADFFFFF76BFA0446D9480068D9490860A5
:1037C0000120D94908702046FFF764FA10BD70B592
:1037D0000026FFF75BFA0646D4480068401CD34930
:1037E00008603046FFF756FAC7480078012853D1E1
:1037F000CF48007820B1012804D0022809D103E085
:1038000001250BE0002509E001250120C8490870C9
:1038100004E001250020C649087000BF00BF05B9BB
:1038200070BDC448046833E0FFF730FA0646206BE9
:1038300050B3206B401E2063206B28BB94F83400EB
:1038400000F0370040B114F8340F20F0370020703A
:1038500001206070343C02E0002084F8350094F8C8
:10386000340000F0080078B93834A078B2490978FB
:103870000843B14908702078B049085C6178084372
:1038800014F83819AD4A505464693046FFF702FA0B
:1038900094F836003F28C7D100BFC1E740F221109D
:1038A0007047704710B590F8382001F10B039B5C0E
:1038B00090F83940A34301F10B04A35423469B5CC9
:1038C00023B98B7A90F83A40A3438B7210BD2DE94F
:1038D000F04F05460F4690469946A87A98490E5CE7
:1038E00005F10B00805D11F800B00BEBC60000F095
:1038F000FF0A884850F82A4000202434E0602760FE
:10390000207C20EA0800207484F81190207C243C5C
:1039100000F0080068B994F83A008749097808432C
:10392000854908708548805D94F8391008438349BB
:10393000885529462046FFF7B5FF206A20B120466A
:10394000216AFFF70EFBE5615046BDE8F08F10B528
:10395000724A1268D061714A126892F8383000F1E8
:103960000B02D25C6D4B1B6893F839301A436B4BDA
:103970001B6893F8384000F10B031A55827A674BA5
:103980001B6893F83A301A438272644A126892F8BC
:1039900038106A4A525C614B1B6893F839309A437D
:1039A000664B5A541A46525C42B95C4A126892F805
:1039B0003A30614A12789A435F4B1A7010BD002367
:1039C000837200F10B01002204E0002301F8013BA7
:1039D000531CDAB2082AF8D3704705E011F8013B0E
:1039E00000F8013B531E9AB2002AF7D170472DE927
:1039F000F84F05460F4690469946DDE90AAB002090
:103A00000090FFF743F900904E480468002C76D0F0
:103A10001C3454F8080C4B4908600098FFF73AF939
:103A200044F81C7CA576002020766076606144F81E
:103A300018BC44F810AC44F8148C0C9824F80C0C06
:103A400024F80A9C0020E077E810207705F00700B2
:103A5000E076217F01208840A077E17E0120884028
:103A60006077002020606060E060A0602062A0625B
:103A70006062E0622063AFF2603060631C3C00264D
:103A800006E0002104F1540040F82610701CC6B274
:103A9000002EF6D02046FFF7D2F92046FFF760F956
:103AA000FFF7F4F800901B4840F8254021480068D3
:103AB00060610020A0611F48006810B11D480068C7
:103AC00084611C4804603834A0781B490978084395
:103AD0001949087020781949085C6178084314F87E
:103AE0003819164A505418480078401C1649087076
:103AF0000098FFF7CFF80020BDE8F88FFFE70098A7
:103B0000FFF7C8F84220F7E76E00002064000020AD
:103B100063000020282A00207C0000207400002080
:103B2000700000205800002060000020900000205D
:103B30008400002080000020650000206600002036
:103B40000A5B0008780000206F0000202DE9F05F7C
:103B500004460F4691461E464FF0000B207805287C
:103B600004D0012030700020BDE8F09F09F0800AE9
:103B7000BAF1000F04D029F080094FF0010801E0EC
:103B80004FF0000800203070FFF780F88346B9F14D
:103B9000000F2CD0B9F1010F3BD0B9F1020F03D0C7
:103BA000B9F1030F46D111E0208900EA0705BD42B3
:103BB00006D1B8F1010F05D12089A843208101E089
:103BC000702030705846FFF765F83AE0208900EA27
:103BD000070535B1B8F1010F05D12089A84320812F
:103BE00001E0702030705846FFF754F829E0208932
:103BF00027EA0005BD4206D1B8F1010F05D12089A1
:103C00002843208101E0702030705846FFF742F8C9
:103C100017E0208927EA000535B1B8F1010F05D179
:103C200020892843208101E0702030705846FFF73A
:103C300031F806E05846FFF72DF800256F20307068
:103C400000BF00BF28468FE72DE9F04106460D462C
:103C50000027FA48007820B1102028700020BDE825
:103C6000F081FFF713F80746F548046884B100684F
:103C70004068F349086005202070268100206060BC
:103C8000F0A0E0603846FFF705F80020287004E057
:103C90003846FEF7FFFF722028702046DFE730B578
:103CA00001464A6808682AB9CC68606028B10025D6
:103CB000456002E0106000B142608B6800259D62A3
:103CC00030BDF0B506460F46B46800202C34606065
:103CD0002780207A20F02000207200206072207A55
:103CE0002C3C88B93834A078D74909780843D6499C
:103CF00008702078D549085C6178084314F83819B1
:103D0000D24A5054012500E000253046FFF7C7FF96
:103D10002846F0BD2DE9F0470446894615464FF088
:103D2000000AC648007820B10F2028702046BDE860
:103D3000F0872078052803D0012028702046F6E778
:103D4000FEF7A4FF8246606808B1012700E0002763
:103D5000B9F1000F03D0B9F1010F3CD119E08FB9CF
:103D6000B8A0E06000202070B548006860600020C6
:103D70002081B34804605046FEF78CFF0020287075
:103D8000002605E05046FEF785FF492028702646AC
:103D900028E0D4F8048005E000214046FFF791FFB9
:103DA000D8F80080B8F1000FF6D1A6A0E06000209E
:103DB0002070A3480068606000202081A048046053
:103DC0005046FEF767FF012F01D1FFF7F4F80020FE
:103DD0002870002606E05046FEF75CFF072028709A
:103DE000264600BF00BF3046A1E72DE9F041054659
:103DF0000E46144600279148007820B1112020700B
:103E00000020BDE8F081FEF741FF0746287805282D
:103E100006D03846FEF73EFF012020700020F0E774
:103E2000E86830603068FFF737F880463846FEF7BC
:103E300031FF002020704046E3E72DE9F0410546C0
:103E40000E46144600277D48007818B112202070D5
:103E5000BDE8F081FEF71AFF07462878052805D04F
:103E60003846FEF717FF01202070F1E7EE60384674
:103E7000FEF710FF0020207000BFE9E7F0B5144600
:103E8000059E734F3F6897F8347047F02007DFF8BE
:103E9000C0C1DCF800C08CF834700027DFF8B0C176
:103EA000DCF800C08CF83570694F3F683E63684F9E
:103EB0003F68B9620C828B74654F3F688F604768BA
:103EC0000F6000274F60C860456805B169604160B8
:103ED0005F4F3F6897F838205C4FBF5CDFF870C1D8
:103EE000DCF800C09CF839C027EA0C07DFF85CC199
:103EF0000CF802706746BF5C5FB9554F3F6897F892
:103F00003AC0514F3F7827EA0C07DFF83CC18CF8E4
:103F10000070F0BD2DE9F04F89B005460F4691467F
:103F20009A46129E002002904448007828B1022050
:103F30003070002009B0BDE8F08F4648007818B115
:103F40000D2030700020F5E72878052803D00120E7
:103F500030700020EEE709F0800BBBF1000F04D0B9
:103F600029F080094FF0010801E04FF00008FEF74A
:103F70008DFE0290B9F1000F4AD0B9F1010F78D04F
:103F8000B9F1020F03D0B9F1030F71D120E02889F4
:103F900000EA0704BC420FD1B8F1010F02D1288911
:103FA000A04328812A48006884850298FEF772FEA3
:103FB000002030702046BDE74B463A4604A928460B
:103FC000CDF800A0FFF75AFF0298FEF763FE78E0F5
:103FD000288900EA07047CB1B8F1010F02D12889D1
:103FE000A04328811A48006884850298FEF752FE93
:103FF0000020307020469DE74B463A4604A92846EB
:10400000CDF800A0FFF73AFF0298FEF743FE58E014
:10401000288927EA0004BC421ED1B8F1010F02D161
:104020002889204328810A48006884850298FEF781
:1040300031FE0020307020467CE71AE0610000204D
:10404000500000203F0000006500002066000020B6
:1040500074000020620000204B463A4604A928461E
:10406000CDF800A0FFF70AFF0298FEF713FE28E044
:104070001FE0288927EA00047CB1B8F1010F02D1C2
:10408000288920432881AD48006884850298FEF77E
:1040900001FE0020307020464CE74B463A4604A90A
:1040A0002846CDF800A0FFF7E9FE0298FEF7F2FDE2
:1040B00007E00298FEF7EEFD00246F2030702046E6
:1040C00038E700BFFEF777FFFEF7E0FD02909B4860
:1040D000006890F8350020B39848006890F83500E3
:1040E000039000209549096881F8350004A8FFF77E
:1040F000D6FD00209149096881F834000298FEF746
:10410000C9FD00240398012805D0022802D10E2001
:10411000307003E000BF0A20307000BF00BF2046AF
:1041200008E786480068848DB8F1010F1ED1B9F107
:10413000000F0ED0B9F1010F0CD0B9F1020F03D06E
:10414000B9F1030F0AD100E000BF2889A0432881FC
:104150000BE000BF28892043288106E00298FEF783
:1041600099FD6F2030700020E4E600BF0298FEF752
:1041700091FD002030702046DCE670B50025FEF78A
:1041800085FD05466D480068848D2846FEF782FD52
:10419000204670BD2DE9FC5F0446894692461E46C6
:1041A000002000902078052804D0012030700020E5
:1041B000BDE8FC9FFEF76AFD0090BAF1000F03D046
:1041C000BAF1010F0AD104E0208920EA0900208118
:1041D0000BE0208940EA0900208106E00098FEF704
:1041E00059FD712030700020E2E700BF4FF0000B56
:1041F000656855E0A87C40B3012838D0022802D079
:10420000032844D111E02089298A00EA0107288A7D
:10421000B84209D139462846FFF753FD8046B8F128
:10422000010F01D14FF0010B38E02089298A00EA03
:1042300001074FB139462846FFF743FD8046B8F1E4
:10424000010F01D14FF0010B28E0288A218920EAD3
:104250000107288AB84209D139462846FFF731FDBF
:104260008046B8F1010F01D14FF0010B16E0288A0A
:10427000218920EA01074FB139462846FFF721FD81
:104280008046B8F1010F01D14FF0010B06E0009814
:10429000FEF700FD6F203070002089E700BF2D6819
:1042A000002DA7D10098FEF7F5FCBBF1010F01D15D
:1042B000FEF781FEFEF7EAFC00902089019000984D
:1042C000FEF7E8FC00203070019871E72DE9F0411D
:1042D00004460D4600272078052804D001202870C8
:1042E0000020BDE8F081FEF7D1FC0746268938465C
:1042F000FEF7D0FC002028703046F2E770B5502160
:104300000F48FFF7C4F80E4C04F11006002509E031
:10431000002020706660AFF2D420E06010341036C8
:10432000681C85B2042DF3D3002020706060AFF2CA
:10433000EC20E06002480349086070BD7400002072
:10434000D82500205000002070B5044600262078B3
:10435000012801D0002070BDFEF798FC0646656874
:10436000002060603046FEF795FC2846F3E770B504
:1043700005460026E848007808B1002070BDFEF729
:1043800085FC0646E5480468006820B1E3480068FB
:104390004068E24908603046FEF77CFC4CB10120E1
:1043A0002070002020816560DDA060612046FFF75D
:1043B00006FB2046E2E72DE9F0470446884615460D
:1043C0004FF000092078012804D0012028702046F1
:1043D000BDE8F087D048007818B10F20287020463B
:1043E000F6E7FEF753FC8146A07A08B1012700E00A
:1043F0000027B8F1000F03D0B8F1010F3AD119E04E
:104400008FB9C7A0606100202070C4480068606058
:1044100000202081C14804604846FEF73BFC002094
:104420002870002605E04846FEF734FC4920287035
:10443000264626E005E00023022219462046FFF723
:1044400046FAA07A0028F6D1B5A06061002020705D
:10445000B2480068606000202081B048046048468F
:10446000FEF718FC012F01D1FEF7A5FD00202870F2
:10447000002606E04846FEF70DFC07202870264679
:1044800000BF00BF3046A3E72DE9F04105460F46C7
:1044900014464FF000082878012804D0012020702D
:1044A0000020BDE8F0819C48007818B102202070FF
:1044B0000020F6E79B48007818B10D2020700020FE
:1044C000EFE7FEF7E3FB80466E6846B100206860C8
:1044D0004046FEF7DFFB002020703046E1E79248BF
:1044E000006890F8340040F002008F49096881F8B4
:1044F000340000208C49096881F835008A4800683A
:1045000007632846FFF723FA4046FEF7C3FBFEF792
:1045100052FDFEF7BBFB80468348006890F83500EB
:1045200020B101280DD002280AD105E07E4800689C
:10453000466A002020700DE000260E20207009E061
:1045400000BF294678480068FFF7ACF900260A202A
:10455000207000BF00BF00207349096881F8340053
:104560007149096881F835006F490968C8616E4969
:10457000096808626C49096848624046FEF78AFB90
:1045800030468EE72DE9F04104460F4615464FF0C0
:1045900000082078012804D0012028700020BDE800
:1045A000F081FEF773FB8046A07A20B300267FB12E
:1045B000012F0CD107E002231A4600212046FFF705
:1045C00086F9701CC6B2A07A0028F4D109E000BFB9
:1045D00002231A4600212046FFF779F9701CC6B263
:1045E00000BF00BF4046FEF755FBFEF7E4FC0E207F
:1045F00028703046D3E74046FEF74CFB0020287079
:1046000000BFCCE770B504460D460026207801288F
:1046100001D0012070BDFEF739FB0646A07A60B1DB
:104620000023022229462046FFF751F93046FEF7C3
:1046300031FBFEF7C0FC0020ECE7606820B130469B
:10464000FEF728FB1420E5E765603046FEF722FB05
:104650000020DFE72DE9F04104460E46154600270D
:104660002078012802D00120BDE8F081FEF70EFB82
:104670000746A07AE8B105F0010050B105E000233B
:10468000022231462046FFF722F9A07A0028F6D10F
:1046900005E00023022231462046FFF718F938468C
:1046A000FEF7F8FA05F0040008B9FEF784FC0020D4
:1046B000DAE7606820B13846FEF7ECFA1420D3E759
:1046C00066603846FEF7E6FA0020CDE72DE9F047B0
:1046D00004460D464FF000092078012802D0012041
:1046E000BDE8F087FEF7D2FA8146A07A287304F17C
:1046F0000B0705F10408002605E017F8010B08F880
:10470000010B701CC6B2082EF7D3606828604846BB
:10471000FEF7C0FA0020E3E7610000204C00002013
:104720003F00000062000020740000202DE9F84FD7
:1047300005460F4690469A4600200090FEF7A6FADE
:1047400000906B480468006820B1694800684068C0
:10475000674908600098FEF79DFA2CB95A208AF83C
:1047600000000020BDE8F88F2E4605EB08094FF049
:10477000000B05E0C6F800904E46C1440BF1010B5A
:10478000781E5845F6D800203060256065602761A6
:10479000E760C4F808808AF800002046E2E72DE9C7
:1047A000F04104460D460027FEF770FA07462069DF
:1047B00068B16668306860602069401E20613846D4
:1047C000FEF768FA002028703046BDE8F0813846D0
:1047D000FEF760FA5D2028700020F6E72DE9F04131
:1047E00006460C46154600274248007820B11120A5
:1047F00028700020BDE8F081FEF748FA074670698E
:1048000020602068FEF748FB80463846FEF742FAF3
:10481000002028704046EDE72DE9F04105460E46A0
:10482000144600273348007818B112202070BDE8E4
:10483000F081FEF72BFA07466E613846FEF72AFA3A
:104840000020207000BFF2E770B504460D46002638
:10485000FEF71CFA0646D4E90310884204D330461A
:10486000FEF718FA5E2070BD6068286065602069F8
:10487000401C20613046FEF70DFA0020F3E770B5CA
:1048800005460C460026FEF701FA06462868206019
:1048900068686060A868A060E868E06028692061D6
:1048A0003046FEF7F7F9D4E90301401A60610020B1
:1048B00070BD70B578211048FEF7E9FD0E4C00255B
:1048C0000BE0681C00EB40000B4901EBC00060608E
:1048D0000AA060611834681C85B2042DF1D3002051
:1048E000606006A0606104480149086070BD000076
:1048F0008800002061000020B83200203F00000046
:104900002DE9F04106460D464FF0000830780228A8
:1049100004D0012028700020BDE8F081FEF7B6F930
:1049200080467468E08A78B12169081D20610F68AB
:10493000E08A401EE082A1682069884201D1606857
:1049400020610020287002E01F20287000274046C8
:10495000FEF7A0F93846DFE72DE9F04106460F469D
:104960004FF00008F748007810B10020BDE8F08152
:10497000FEF78CF98046F4480468006820B1F248DC
:1049800000684068F04908604046FEF783F9FCB1D2
:10499000FEF77CF98046ED480568D5B100680068EF
:1049A000EA4908604046FEF775F96E6006EB87003D
:1049B000A860EE602E61AF820020E88202202070A5
:1049C000002020816560E2A060612046FEF7F7FFCD
:1049D00008E0DD4800686060DB4804604046FEF7A0
:1049E00059F900242046C1E72DE9F04704468946DD
:1049F00015464FF0000A2078022804D001202870C4
:104A00002046BDE8F087CF48007818B10F20287005
:104A10002046F6E7FEF73AF98246A07A10B14FF049
:104A2000010801E04FF00008B9F1000F03D0B9F11F
:104A3000010F49D121E0B8F1000F17D1C4A0606186
:104A40006668C24800683060C04806600020207078
:104A5000BD480068606000202081BB48046050466B
:104A6000FEF718F900202870002705E05046FEF7F1
:104A700011F94920287027462DE005E00023042283
:104A800019462046FEF723FFA07A0028F6D1B0A0F1
:104A900060616668AD4800683060AC480660002020
:104AA0002070A9480068606000202081A64804604A
:104AB0005046FEF7EFF8B8F1010F01D1FEF77BFA8F
:104AC00000202870002706E05046FEF7E3F8072094
:104AD0002870274600BF00BF384692E770B50546EC
:104AE0000026FEF7D3F806466C686068E0606068F0
:104AF00020610020E0823046FEF7CCF8002070BD37
:104B00002DE9F0470746884615464FF000093878EA
:104B1000022804D0012028700020BDE8F0878948D1
:104B2000007818B1022028700020F6E78948007844
:104B300018B10D2028700020EFE7FEF7A7F8814696
:104B40007C68E08A98B12169081D20610E68E08ABE
:104B5000401EE082A1682069884201D1606820611E
:104B60004846FEF797F8002028703046D5E77A4887
:104B7000006890F8340040F004007749096881F833
:104B8000340000207449096881F8350072480068D3
:104B9000C0F830803846FEF7DAFE4846FEF77AF86D
:104BA000FEF709FAFEF772F881466B48006890F844
:104BB000350020B101280DD002280AD105E0664851
:104BC0000068466A002028700DE000260E2028703C
:104BD00009E000BF394660480068FEF763FE002622
:104BE0000A20287000BF00BF00205B49096881F8D7
:104BF00034005949096881F8350057490968C86186
:104C00005549096808625449096848624846FEF7F0
:104C100041F8304681E72DE9F04104460F4615463C
:104C20004FF000082078022804D0012028700020CE
:104C3000BDE8F081FEF72AF88046A07A20B300266E
:104C40007FB1012F0CD107E002230422002120466E
:104C5000FEF73DFE701CC6B2A07A0028F4D109E030
:104C600000BF0223042200212046FEF730FE701C04
:104C7000C6B200BF00BF4046FEF70CF8FEF79BF936
:104C80000E2028703046D3E74046FEF703F8002098
:104C9000287000BFCCE72DE9F04105460E460027FD
:104CA0002878022802D00120BDE8F081FDF7EEFF50
:104CB0000746A87A60B10023042231462846FEF751
:104CC00006FE3846FDF7E6FFFEF775F90020EBE734
:104CD0006C68E08AA18A884204DB3846FDF7DAFF77
:104CE0001E20E1E7E168081DE0600E60E08A401CDC
:104CF000E082D4E90210884201D16068E060384661
:104D0000FDF7C8FF0020CFE72DE9F04105460E462C
:104D100000272878022802D00120BDE8F081FDF7A5
:104D2000B5FF0746A87AC8B10023042231462846B9
:104D3000FEF7CDFD3846FDF7ADFFFEF73CF900204C
:104D4000EBE70000610000204C0000208C000020F8
:104D50003F00000062000020740000206C68E08AC0
:104D6000A18A884204DB3846FDF794FF1E20D4E771
:104D700061682069884201D1A06820612069001F14
:104D8000206120690660E08A401CE0823846FDF719
:104D900081FF0020C1E72DE9F04105460F46164688
:104DA0004FF000082878022802D00120BDE8F081E9
:104DB000FDF76CFF8046A87AE8B106F0010050B11B
:104DC00005E00023042239462846FEF780FDA87A34
:104DD0000028F6D105E00023042239462846FEF7D4
:104DE00076FD4046FDF756FF06F0040008B9FEF7D1
:104DF000E2F80020DAE76C68E08AA18A884204DBE6
:104E00004046FDF747FF1E20D0E706F0020058B1EC
:104E100061682069884201D1A06820612069001F73
:104E200020612069076009E0E168081DE0600F600B
:104E3000D4E90210884201D16068E060E08A401C39
:104E4000E0824046FDF726FF0020AFE72DE9F0475E
:104E500005460C464FF0000A2878022802D00120AF
:104E6000BDE8F087FDF712FF8246A87A207405F1AD
:104E70000B0804F10809002705E018F8010B09F8F0
:104E8000010B781CC7B2082FF7D36E68F08A18B1EF
:104E900030690068206001E000202060F08AA08076
:104EA000B08AE0805046FDF7F5FE0020D8E770B5E7
:104EB00060210A48FEF7EBFA084C04F118060025B9
:104EC00004E0266018341836681C85B2032DF8D328
:104ED0000020206001480249086070BD3033002086
:104EE0008C0000202DE9F34F85B08846002001900A
:104EF000FDF7CCFE0190FE4850F8280030B1019833
:104F0000FDF7C8FE282007B0BDE8F08F0598FF2800
:104F100004D1F848006890F836000590F4490598E7
:104F200051F8205025B90198FDF7B4FE2920EAE791
:104F3000012D04D10198FDF7ADFE4320E3E74FEAD0
:104F4000E80708F0070003900120B84000F0FF09CF
:104F500001210398814001F0FF0A0021E44A0598ED
:104F600042F82010104640F8285095F8386095F81F
:104F70003A00029095F839B0DF48805D00EA0B00F6
:104F8000D0B1DD48805D20EA0B00DB49885508463A
:104F9000805D28B9D948007802998843D7490870BC
:104FA000D648007840EA0900D4490870D248C05D6C
:104FB00040EA0A00D049C855EC69D4B104F10B00AD
:104FC000805D20EA0B0004F10B0188550846805DE6
:104FD00018B9A07A02998843A072A07A40EA090021
:104FE000A07204F10B00C05D40EA0A0004F10B015D
:104FF000C855286A30B3286A0490049804681FE0F2
:1050000004F10B00805D20EA0B0004F10B018855D0
:105010000846805D18B9A07A02998843A072A07AE8
:1050200040EA0900A07204F10B00C05D40EA0A00EA
:1050300004F10B01C8550498001D049004980468FD
:10504000002CDDD185F8368085F83870039885F816
:10505000370085F83A9085F839A00198FDF71AFED7
:10506000A7480078012801D1FDF7A5FF00204AE7F5
:105070002DE9FE4F06460F4690461C464FF00009AC
:10508000FDF704FE81469F48007828B14846FDF7A9
:1050900001FE3C20BDE8FE8F954850F8240060BB1F
:1050A0000120934941F824004846FDF7F3FD002311
:1050B000424639463046FDF758FE824600200090B1
:1050C000019003460246514602902046FEF78FFCAF
:1050D000054635B98A48007801280CD1FDF76BFFE9
:1050E00009E0FDF7D3FD81460020814941F8240005
:1050F0004846FDF7CFFD2846CCE74846FDF7CAFDF8
:105100002820C7E702F0010343B102F002032BB1EC
:1051100002E0491E002308C00029FAD170472DE99A
:10512000F04F85B081468A4693461C46DDE90F78EC
:10513000129D00200390FDF7A9FD039071480078AF
:1051400030B10398FDF7A6FD3C2005B0BDE8F08F17
:10515000674850F8240088BB0120654941F82400C5
:105160000398FDF797FD2A4641463846FFF7CAFFE8
:105170002B465A4651464846FDF7F7FD04901198D4
:10518000CDE9008002953A4620460E9B0499FEF731
:105190002EFC064636B95A48007801280CD1FDF796
:1051A0000AFF09E0FDF772FD03900020504941F825
:1051B00024000398FDF76EFD3046C6E7FFE703982D
:1051C000FDF768FD2820C0E72DE9F04105460027DE
:1051D0004C48007810B14020BDE8F0813F2D01D14E
:1051E0003E20F9E7FDF752FD0746FF2D03D1414868
:1051F000006890F836503E4850F8254024B93846AB
:10520000FDF748FD4320E7E7012C04D13846FDF7C0
:1052100041FD3D20E0E714F8380F3749085C61781C
:1052200088432178344A505414F838091146085CF0
:1052300030B994F83A103148007888432F49087003
:10524000E06918B12046E169FEF72CFB206A18B12D
:105250002046216AFDF785FEA66A16B13046FEF7A4
:105260001EFD0020206384F8340084F835002648B1
:105270000078FF2804D224480078401C2249087096
:105280003846FDF707FDFEF70CFBFDF7FFFC074670
:105290001D48007820B11C480078401E1A4908704B
:1052A0002046FDF75EFD19480078401E174908703A
:1052B00000200F4941F82500A06930B9002061693C
:1052C000886113496069086005E0D4E90501486117
:1052D000D4E9051088610F48006860610D480460DA
:1052E0000DA020653846FDF7D5FC0548007815E08F
:1052F000282A00207400002066000020650000209D
:105300006E00002061000020620000206F0000207D
:1053100080000020780000203F000000012801D11B
:10532000FDF749FE002057E72DE9F041044600272C
:105330003F2C02D13E20BDE8F081FF2C0BD1FDF7C0
:10534000A5FC0746EB48006890F83B603846FDF73F
:10535000A1FC3046EFE7FDF799FC0746E64850F818
:10536000245025B93846FDF795FC4320E3E7012D8D
:1053700004D13846FDF78EFC3D20DCE73F2085F860
:105380003B003846FDF786FC0020D4E72DE9F047C6
:1053900006460F4614464FF00008D848007820B162
:1053A000112020700020BDE8F087FDF76FFC8046DB
:1053B000FF2E03D1CF48006890F83660CE4850F8F1
:1053C000265035B94046FDF765FC4320207000208B
:1053D000E9E7012D06D14046FDF75CFC4320207033
:1053E0000020E0E7286D38603868FDF755FD8146FC
:1053F0004046FDF74FFC002020704846D3E72DE9DA
:10540000F04106460F4614464FF00008BB480078AE
:1054100018B112202070BDE8F081FDF737FC8046FE
:10542000FF2E03D1B348006890F83660B24850F8B8
:1054300026502DB94046FDF72DFC43202070EAE7A9
:10544000012D05D14046FDF725FC43202070E2E701
:105450002F654046FDF71EFC0020207000BFDAE7F4
:1054600070B505460026FDF711FC0646A24850F827
:10547000254024B93046FDF70DFC462070BD012CB7
:1054800004D13046FDF706FC4320F7E794F83400DA
:1054900000F0080060B314F8340F20F0080020700A
:1054A00014F83409F8B9206BC8B93834A078944995
:1054B000097808439249087020789249085C61781D
:1054C000084314F838198F4A50543046FDF7E2FB70
:1054D0008D480078012809D1FDF76DFD06E03046C2
:1054E000FDF7D8FB02E03046FDF7D4FB0020C5E70E
:1054F0003046FDF7CFFB4420C0E72DE9F0470746D3
:105500000D464FF0000A002028606860FDF7BEFBE2
:105510008246FF2F03D17748006890F836707648AE
:1055200050F827402CB95046FDF7B4FB4320BDE8A6
:10553000F087012C04D15046FDF7ACFB4320F6E781
:10554000207C00F0010020B95046FDF7A3FB452068
:10555000EDE70026D4F80C90D4F808805046FDF70B
:1055600099FB00E0761C58F8041B0029FAD0B00023
:105570002860A9EB0600800068600020D7E72DE9CD
:10558000F04105464FF00008FDF780FB8046FF2DF7
:1055900005D15848006890F83650012608E0554873
:1055A000006890F83600A84201D1012600E00026EC
:1055B000514850F825402CB94046FDF76BFB482078
:1055C000BDE8F081012C04D14046FDF763FB432088
:1055D000F6E794F838704B48C05D94F8391088436A
:1055E0004849C8550846C05D30B994F83A10444857
:1055F000007888434249087094F8340040F008006D
:1056000084F834004046FDF745FB012E01D1FDF73B
:10561000D2FC0020D4E72DE9F04105460E460027D4
:10562000FDF734FB0746FF2D03D13248006890F8A0
:105630003650314850F825402CB93846FDF72AFB42
:105640002920BDE8F081012C04D13846FDF722FB6A
:105650004320F6E7582221463046FEF7BEF9384689
:10566000FDF718FB0020ECE72DE9F04704460E4655
:1056700017464FF00009FDF709FB8146FF2C02D1C8
:105680001C48056802E01C4850F8245005F15400FD
:1056900050F826804846FDF7FDFA00203870404655
:1056A000BDE8F0872DE9F04704460E4617469846B8
:1056B0004FF00009FDF7EAFA8146FF2C02D10D48B0
:1056C000056802E00C4850F8245005F1540040F8F9
:1056D00026704846FDF7DEFA002088F80000BDE895
:1056E000F08710B503480068FDF73DFBFF20FFF78A
:1056F0006BFD10BD74000020282A002061000020EE
:1057000065000020660000206E00002070B5054690
:1057100000265E48007800B170BD1DB3FDF7B6FAF3
:1057200006465B48006890F838405A48005D584982
:10573000096891F839108843564908550846005DB4
:1057400040B95348006890F83A10534800788843AD
:10575000514908704E48006805633046FDF79AFAD3
:10576000FDF729FC00BFD7E72DE9F04104460D46BF
:1057700016461F464548007810B15520BDE8F08117
:10578000781D642148434FF47A71B0FBF1F14FF476
:1057900061606043C5EB051200EB8200304400EB12
:1057A000C00202EB001001EB80084046FFF7AEFF9D
:1057B0000020E3E770B5054600263F2D01D32A20DF
:1057C00070BDFDF763FA0646344850F8254024B909
:1057D0003046FDF75FFA4320F2E7012C04D1304652
:1057E000FDF758FA4320EBE7206B20B93046FDF770
:1057F00051FA5020E4E70020206394F8340000F0D0
:10580000370040B114F8340F20F037002070012029
:105810006070343C02E0002084F8350094F83400D5
:1058200000F00800A8B93834A0781B49097808436B
:105830001949087020781749085C6178084314F802
:105840003819144A50543046FDF724FAFDF7B3FBDB
:1058500002E03046FDF71EFA0020B1E770B50025E2
:10586000FDF714FA05460E4804682846FDF712FABB
:10587000204670BD70B504460025FDF707FA0546C1
:10588000074804602846FDF705FA70BD6100002056
:10589000740000206600002065000020282A0020F7
:1058A000900000200649074A0868504343F2390235
:1058B00010440860400870470149086070470000C4
:1058C000940000206D4EC641D2B201E000F8012BD9
:1058D000491EFBD270470022F6E710B513460A4670
:1058E00004461946FFF7F0FF204610BD421E12F88D
:1058F000013F002BFBD111F8013B02F8013B002BCB
:10590000F9D17047421C10F8011B0029FBD1801A05
:10591000704730B50B46014600202022012409E0E3
:1059200021FA02F59D4205D303FA02F5491B04FA58
:1059300002F52844151EA2F10102F1DC30BD000081
:10594000064C074D06E0E06840F0010394E80700CC
:1059500098471034AC42F6D3FAF71AFC0C5C0008F6
:105960002C5C00080FB4084B10B504A902AA0398D8
:1059700000F01CF8044602A9002000F0C1F82046FF
:1059800010BC5DF814FB0000015B000802E008C8D1
:10599000121F08C1002AFAD170477047002001E0A9
:1059A00001C1121F002AFBD1704700002DE9FF4FF3
:1059B00089B09B460446002506E025280BD05A46B0
:1059C0000B999047641C6D1C20780028F5D10DB010
:1059D0002846BDE8F08F0027B8460122474900E07D
:1059E000074314F8013F203B02FA03F00842F7D1C5
:1059F00020782E2819D114F8010F47F004072A281F
:105A00000ED06FF02F022078A0F1300109290CD8B8
:105A100008EB880102EB410100EB0108641CF2E78E
:105A20000A98641C50F8048B0A9020780028CED085
:105A3000642808D0692806D075281ED05A460B99CC
:105A400090476D1C58E00A994FF00A0901C90A9164
:105A5000002802DA40422D2102E0390504D52B212D
:105A60008DF82010012103E0F90704D02021F7E789
:105A70008A4608AE0DE00021FAE70A994FF00A09BC
:105A800001C90A91F7E74946FFF743FF303106F8AD
:105A9000011D0028F7D1ADEB060000F120097807C1
:105AA00001D44FF00108C84502DDA8EB090000E071
:105AB00000208046002706E008A85A46C05D0B99E2
:105AC00090476D1C7F1C5745F6DB04E030205A469A
:105AD0000B9990476D1CB8F10001A8F10108F5DCA5
